{
  "_format": "hh-sol-artifact-1",
  "contractName": "ResumeRegistry",
  "sourceName": "contracts/ResumeRegistry.sol",
  "abi": [
    {
      "inputs": [],
      "stateMutability": "nonpayable",
      "type": "constructor"
    },
    {
      "inputs": [
        {
          "internalType": "address",
          "name": "subject",
          "type": "address"
        }
      ],
      "name": "getLatestResume",
      "outputs": [
        {
          "internalType": "address",
          "name": "",
          "type": "address"
        },
        {
          "internalType": "string",
          "name": "",
          "type": "string"
        }
      ],
      "stateMutability": "view",
      "type": "function"
    },
    {
      "inputs": [
        {
          "internalType": "address",
          "name": "subject",
          "type": "address"
        },
        {
          "internalType": "address",
          "name": "issuer",
          "type": "address"
        }
      ],
      "name": "getResume",
      "outputs": [
        {
          "internalType": "string",
          "name": "",
          "type": "string"
        }
      ],
      "stateMutability": "view",
      "type": "function"
    },
    {
      "inputs": [
        {
          "internalType": "address",
          "name": "subject",
          "type": "address"
        },
        {
          "internalType": "string",
          "name": "cid",
          "type": "string"
        }
      ],
      "name": "issueResume",
      "outputs": [],
      "stateMutability": "nonpayable",
      "type": "function"
    },
    {
      "inputs": [
        {
          "internalType": "address",
          "name": "",
          "type": "address"
        }
      ],
      "name": "issuers",
      "outputs": [
        {
          "internalType": "bool",
          "name": "",
          "type": "bool"
        }
      ],
      "stateMutability": "view",
      "type": "function"
    },
    {
      "inputs": [],
      "name": "owner",
      "outputs": [
        {
          "internalType": "address",
          "name": "",
          "type": "address"
        }
      ],
      "stateMutability": "view",
      "type": "function"
    },
    {
      "inputs": [
        {
          "internalType": "address",
          "name": "issuer",
          "type": "address"
        }
      ],
      "name": "registerIssuer",
      "outputs": [],
      "stateMutability": "nonpayable",
      "type": "function"
    }
  ],
  "bytecode": "0x608060405234801561001057600080fd5b50336000806101000a81548173ffffffffffffffffffffffffffffffffffffffff021916908373ffffffffffffffffffffffffffffffffffffffff160217905550611053806100606000396000f3fe608060405234801561001057600080fd5b50600436106100625760003560e01c806338a7543e1461006757806372af07ff146100975780637323555f146100c8578063814a0e82146100e4578063886edc73146101005780638da5cb5b14610130575b600080fd5b610081600480360381019061007c919061081f565b61014e565b60405161008e9190610867565b60405180910390f35b6100b160048036038101906100ac919061081f565b61016e565b6040516100bf929190610921565b60405180910390f35b6100e260048036038101906100dd919061081f565b6103d8565b005b6100fe60048036038101906100f99190610a86565b6104c0565b005b61011a60048036038101906101159190610ae2565b61067a565b6040516101279190610b22565b60405180910390f35b610138610789565b6040516101459190610b44565b60405180910390f35b60016020528060005260406000206000915054906101000a900460ff1681565b600060606000600360008573ffffffffffffffffffffffffffffffffffffffff1673ffffffffffffffffffffffffffffffffffffffff16815260200190815260200160002080549050116101f7576040517f08c379a00000000000000000000000000000000000000000000000000000000081526004016101ee90610bab565b60405180910390fd5b6000600360008573ffffffffffffffffffffffffffffffffffffffff1673ffffffffffffffffffffffffffffffffffffffff1681526020019081526020016000206001600360008773ffffffffffffffffffffffffffffffffffffffff1673ffffffffffffffffffffffffffffffffffffffff168152602001908152602001600020805490506102879190610c04565b8154811061029857610297610c38565b5b9060005260206000200160009054906101000a900473ffffffffffffffffffffffffffffffffffffffff16905080600260008673ffffffffffffffffffffffffffffffffffffffff1673ffffffffffffffffffffffffffffffffffffffff16815260200190815260200160002060008373ffffffffffffffffffffffffffffffffffffffff1673ffffffffffffffffffffffffffffffffffffffff16815260200190815260200160002080805461034e90610c96565b80601f016020809104026020016040519081016040528092919081815260200182805461037a90610c96565b80156103c75780601f1061039c576101008083540402835291602001916103c7565b820191906000526020600020905b8154815290600101906020018083116103aa57829003601f168201915b505050505090509250925050915091565b60008054906101000a900473ffffffffffffffffffffffffffffffffffffffff1673ffffffffffffffffffffffffffffffffffffffff163373ffffffffffffffffffffffffffffffffffffffff1614610466576040517f08c379a000000000000000000000000000000000000000000000000000000000815260040161045d90610d13565b60405180910390fd5b60018060008373ffffffffffffffffffffffffffffffffffffffff1673ffffffffffffffffffffffffffffffffffffffff16815260200190815260200160002060006101000a81548160ff02191690831515021790555050565b600160003373ffffffffffffffffffffffffffffffffffffffff1673ffffffffffffffffffffffffffffffffffffffff16815260200190815260200160002060009054906101000a900460ff1661054c576040517f08c379a000000000000000000000000000000000000000000000000000000000815260040161054390610d7f565b60405180910390fd5b80600260008473ffffffffffffffffffffffffffffffffffffffff1673ffffffffffffffffffffffffffffffffffffffff16815260200190815260200160002060003373ffffffffffffffffffffffffffffffffffffffff1673ffffffffffffffffffffffffffffffffffffffff16815260200190815260200160002090816105d59190610f4b565b50600360008373ffffffffffffffffffffffffffffffffffffffff1673ffffffffffffffffffffffffffffffffffffffff168152602001908152602001600020339080600181540180825580915050600190039060005260206000200160009091909190916101000a81548173ffffffffffffffffffffffffffffffffffffffff021916908373ffffffffffffffffffffffffffffffffffffffff1602179055505050565b6060600260008473ffffffffffffffffffffffffffffffffffffffff1673ffffffffffffffffffffffffffffffffffffffff16815260200190815260200160002060008373ffffffffffffffffffffffffffffffffffffffff1673ffffffffffffffffffffffffffffffffffffffff168152602001908152602001600020805461070390610c96565b80601f016020809104026020016040519081016040528092919081815260200182805461072f90610c96565b801561077c5780601f106107515761010080835404028352916020019161077c565b820191906000526020600020905b81548152906001019060200180831161075f57829003601f168201915b5050505050905092915050565b60008054906101000a900473ffffffffffffffffffffffffffffffffffffffff1681565b6000604051905090565b600080fd5b600080fd5b600073ffffffffffffffffffffffffffffffffffffffff82169050919050565b60006107ec826107c1565b9050919050565b6107fc816107e1565b811461080757600080fd5b50565b600081359050610819816107f3565b92915050565b600060208284031215610835576108346107b7565b5b60006108438482850161080a565b91505092915050565b60008115159050919050565b6108618161084c565b82525050565b600060208201905061087c6000830184610858565b92915050565b61088b816107e1565b82525050565b600081519050919050565b600082825260208201905092915050565b60005b838110156108cb5780820151818401526020810190506108b0565b60008484015250505050565b6000601f19601f8301169050919050565b60006108f382610891565b6108fd818561089c565b935061090d8185602086016108ad565b610916816108d7565b840191505092915050565b60006040820190506109366000830185610882565b818103602083015261094881846108e8565b90509392505050565b600080fd5b600080fd5b7f4e487b7100000000000000000000000000000000000000000000000000000000600052604160045260246000fd5b610993826108d7565b810181811067ffffffffffffffff821117156109b2576109b161095b565b5b80604052505050565b60006109c56107ad565b90506109d1828261098a565b919050565b600067ffffffffffffffff8211156109f1576109f061095b565b5b6109fa826108d7565b9050602081019050919050565b82818337600083830152505050565b6000610a29610a24846109d6565b6109bb565b905082815260208101848484011115610a4557610a44610956565b5b610a50848285610a07565b509392505050565b600082601f830112610a6d57610a6c610951565b5b8135610a7d848260208601610a16565b91505092915050565b60008060408385031215610a9d57610a9c6107b7565b5b6000610aab8582860161080a565b925050602083013567ffffffffffffffff811115610acc57610acb6107bc565b5b610ad885828601610a58565b9150509250929050565b60008060408385031215610af957610af86107b7565b5b6000610b078582860161080a565b9250506020610b188582860161080a565b9150509250929050565b60006020820190508181036000830152610b3c81846108e8565b905092915050565b6000602082019050610b596000830184610882565b92915050565b7f4e6f20726573756d650000000000000000000000000000000000000000000000600082015250565b6000610b9560098361089c565b9150610ba082610b5f565b602082019050919050565b60006020820190508181036000830152610bc481610b88565b9050919050565b6000819050919050565b7f4e487b7100000000000000000000000000000000000000000000000000000000600052601160045260246000fd5b6000610c0f82610bcb565b9150610c1a83610bcb565b9250828203905081811115610c3257610c31610bd5565b5b92915050565b7f4e487b7100000000000000000000000000000000000000000000000000000000600052603260045260246000fd5b7f4e487b7100000000000000000000000000000000000000000000000000000000600052602260045260246000fd5b60006002820490506001821680610cae57607f821691505b602082108103610cc157610cc0610c67565b5b50919050565b7f4e6f74206f776e65720000000000000000000000000000000000000000000000600082015250565b6000610cfd60098361089c565b9150610d0882610cc7565b602082019050919050565b60006020820190508181036000830152610d2c81610cf0565b9050919050565b7f4e6f742069737375657200000000000000000000000000000000000000000000600082015250565b6000610d69600a8361089c565b9150610d7482610d33565b602082019050919050565b60006020820190508181036000830152610d9881610d5c565b9050919050565b60008190508160005260206000209050919050565b60006020601f8301049050919050565b600082821b905092915050565b600060088302610e017fffffffffffffffffffffffffffffffffffffffffffffffffffffffffffffffff82610dc4565b610e0b8683610dc4565b95508019841693508086168417925050509392505050565b6000819050919050565b6000610e48610e43610e3e84610bcb565b610e23565b610bcb565b9050919050565b6000819050919050565b610e6283610e2d565b610e76610e6e82610e4f565b848454610dd1565b825550505050565b600090565b610e8b610e7e565b610e96818484610e59565b505050565b5b81811015610eba57610eaf600082610e83565b600181019050610e9c565b5050565b601f821115610eff57610ed081610d9f565b610ed984610db4565b81016020851015610ee8578190505b610efc610ef485610db4565b830182610e9b565b50505b505050565b600082821c905092915050565b6000610f2260001984600802610f04565b1980831691505092915050565b6000610f3b8383610f11565b9150826002028217905092915050565b610f5482610891565b67ffffffffffffffff811115610f6d57610f6c61095b565b5b610f778254610c96565b610f82828285610ebe565b600060209050601f831160018114610fb55760008415610fa3578287015190505b610fad8582610f2f565b865550611015565b601f198416610fc386610d9f565b60005b82811015610feb57848901518255600182019150602085019450602081019050610fc6565b868310156110085784890151611004601f891682610f11565b8355505b6001600288020188555050505b50505050505056fea2646970667358221220d8b41463096df2df037155fdfd7c554d45957433809177884231f8261c78668e64736f6c63430008140033",
  "linkReferences": {},
  "deployedLinkReferences": {}
}